:020000040000FA
:0400000000003128A3
:040004000034003490
:08000800FD000308FE000A08D8
:10001000FF007F088A007E088300FD0E7D0E090028
:100020000130A200FA30A100FA30A0000000000068
:100030000000A00B1628A10B1428A20B1228080000
:10004000231823282528860C0800860D0800861F03
:1000500008000130A300231C0800061C0800003023
:10006000A300860183160313860183120030A300C8
:0E007000013086001020202027202B203A2867
:02400E00313F40
:00000001FF
