:020000040000FA
:0400000000001F28B5
:040004000034003490
:08000800FD000308FE000A08D8
:10001000FF007F088A007E088300FD0E7D0E090028
:100020008316031306309F003F30850083120800BB
:100030008316031386018312031386010800102020
:100040001820051C2E28851C3128051D3428851DE7
:100050003728051E3A28851E3D28212801308600B4
:1000600040280230860040280430860040280830AE
:100070008600402810308600402820308600402826
:02008000212835
:02400E00313F40
:00000001FF
