:020000040000FA
:0400000000002928AB
:040004000034003490
:08000800FD000308FE000A08D8
:10001000FF007F088A007E088300FD0E7D0E090028
:100020000130A2000130A100EF30A0000000A00BC1
:100030001628A10B1428A20B1028080082073F34B1
:1000400006345B344F3466346D347D3407347F348A
:100050006F34860183160313860106309F003C30FF
:100060008500831286010230850003301E20860041
:1000700010200130850002301E2086001020332819
:02400E00313F40
:00000001FF
