:020000040000FA
:0400000000003E2896
:040004000034003490
:08000800FD000308FE000A08D8
:10001000FF00831203130C10DB308E000B308F00B7
:10002000A30A02302302031D1C28A3018310013000
:100030008607831C1C2886017F088A007E088300AF
:10004000FD0E7D0E09000830A0002F30A100033006
:10005000A200A00B2C28A10B2E28A20B29280000FF
:1000600000000000080082073F3406345B344F3440
:1000700066346D347D3407347F346F348316031354
:10008000860183120313313090000C108316031382
:100090000C14831203138601DB308E000B308F00AB
:0800A000A301C0308B005328BE
:02400E00313F40
:00000001FF
