:020000040000FA
:10000000000025290830A0001530A1000230A20010
:10001000A00B0B28A10B0D28A20B08280000000044
:1000200000000800E730A2000430A300A20B19284A
:10003000A30B162800000000080025182028A5188A
:100040002228251924280614251C2728A518292824
:1000500025192B28861425182E28A51C302825198B
:1000600032280615251C3528A51C372825193928BE
:10007000861525183C28A5183E28251D402806165B
:10008000251C4328A5184528251D47288616251810
:100090004A28A51C4C28251D4E280617080025189F
:1000A0005228A5185428251956280714251C592804
:1000B000A5185B2825195D28871425186028A51C1C
:1000C0006228251964280715251C6728A51C69289E
:1000D00025196B28871525186E28A5187028251D49
:1000E00072280716080025187628A51878282519DB
:1000F0007A280610251C7D28A5187F282519812817
:10010000861025188428A51C8628251988280611FC
:10011000251C8B28A51C8D2825198F2886112518AC
:100120009228A5189428251D96280612251C992882
:10013000A5189B28251D9D2886122518A028A51CDA
:10014000A228251DA428061308002518A828A518EC
:10015000AA282519AC280710251CAF28A518B128F6
:100160002519B32887102518B628A51CB8282519E5
:10017000BA280711251CBD28A51CBF282519C12890
:1001800087112518C428A518C628251DC8280712B8
:10019000251CCB28A518CD28251DCF28871225186A
:1001A000D228A51CD428251DD62807130800260808
:1001B000A5001D202708A5004F2012202608A50015
:1001C00073202708A500A5202808A5001D202908C0
:1001D000A5004F2012202808A50073202908A5009B
:1001E000A5203008A5001D203108A5004F201220B1
:1001F0003008A50073203108A500A5200800A60A34
:10020000261C0329A61C0529261D0729A60108006E
:10021000073026180C29A6180E2926191029A60021
:10022000A6030800A70A271C1629A7181829271DA6
:100230001A29A7010800053027181F29A718212906
:1002400027192329A700A7030800831606309F005B
:100250000F30850000308600003087008312850152
:10026000860187010F3085000230A6000330A80008
:100270000430B0000230A7000230A9000230B10003
:100280000030A500D720051C4C29851C6329051DBD
:100290007A29851D9129422912202808B0002908B1
:1002A000B1002608A8002708A9001221D720D720CE
:1002B000D720051C4C29851C6329051D7A29851D1D
:1002C000912956294C2912202808B0002908B1008C
:1002D0002608A8002708A900FF20D720D720D7206C
:1002E000051C4C29851C6329051D7A29851D91292A
:1002F0006D29632912202808B0002908B1002608BA
:10030000A8002708A9000821D720D720D720051C3E
:100310004C29851C6329051D7A29851D912984296D
:100320007A292808B0002908B1002608A800270863
:10033000A9001B21D720D720D720051C4C29851CBC
:0E0340006329051D7A29851D91299A29912985
:02034E00003479
:02035000003477
:02400E00313F40
:00000001FF
