:020000040000FA
:0400000000003A289A
:040004000034003490
:08000800FD000308FE000A08D8
:10001000FF000B1183308100A30AFA302302031D75
:100020001828A301831001308607831C1828860135
:100030007F088A007E088300FD0E7D0E09000830CF
:10004000A0002F30A1000330A200A00B2828A10B94
:100050002A28A20B252800000000000008008207C3
:100060003F3406345B344F3466346D347D340734AA
:100070007F346F34831603138601023081008312AC
:0E008000860183308100A3018B168B17462862
:02400E00313F40
:00000001FF
