:020000040000FA
:10000000000094280830A0002530A1000130A20093
:10001000A00B0B28A10B0D28A20B08280000000044
:100020000000080087120714080086130614080051
:1000300006108617080007108716080006184330B8
:100040008618073006190E3086191C30061A38300B
:10005000861A7030061B61308600071C3028871C0A
:100060003228071D34280230871C3728071D3928FD
:10007000871D3B280430071D3E28871D4028071E8A
:1000800042280830871D4528071E4728071C492895
:100090001030071E4C28071C4E28871C50280130A2
:1000A00087000030A30008000718133087180730B6
:1000B00007190E3087191C30071A19308700061CE3
:1000C0006228861C6428061D66280230861C692862
:1000D000061D6B28861D6D280430061D7028861DA0
:1000E0007228061E74280830861D7728061E792877
:1000F000861E7B281030061E7E28861E8028061F3E
:1001000082282030861E8528061F8728061C8928FD
:100110004030061F8C28061C8E28861C9028013033
:1001200086000130A3000800831606309F000F30C0
:10013000850000308600003087008312850186012B
:1001400087010F3085001C308600043087000030A6
:10015000A300051CB228851CC228051DD228851DB8
:10016000E228A3280220231C54200310870D871A9D
:100170001220051CB228851CC228051DD228851D09
:10018000E228B228022023181E200310860D861BA9
:100190001520051CB228851CC228051DD228851DE6
:1001A000E228C228022023181E2006181820031057
:1001B000860C051CB228851CC228051DD228851D69
:1001C000E228D2280220231C542007181B200310E9
:1001D000870C051CB228851CC228051DD228851D48
:0401E000E228E22807
:0401E40000340034AF
:02400E00313F40
:00000001FF
