:020000040000FA
:0400000000002F28A5
:040004000034003490
:08000800FD000308FE000A08D8
:10001000FF007F088A007E088300FD0E7D0E090028
:100020000830A0002F30A1000330A200A00B192837
:10003000A10B1B28A20B16280000000000000800DE
:100040008316031306309F003F308500831208009B
:1000500083160313860183120313860108002020F0
:100060002820051C3E28851C4128051D4428851D87
:100070004728051E4A28851E4D2831280130860054
:10008000502802308600502804308600502808305E
:1000900086005028103086005028203086005028D6
:0200A000312805
:02400E00313F40
:00000001FF
