:020000040000FA
:10000000000016280830A0002F30A1000130A20007
:10001000A00B0B28A10B0D28A20B08280000000044
:1000200000000800850A08008503080083160630D2
:100030009F003030850000308600831285018601E4
:100040003030850000308600051E2928851E3F2897
:1000500024280220861F2D28061F2F28861E3128BF
:10006000061E3328861D3528061D3728861C39288C
:10007000061C3B281220860A851E3F2829280220BC
:10008000861B4328061B4528861A4728061A492836
:1000900086194B2806194D2886184F28061851280E
:0A00A00014208603051E29283F28BE
:0400AA0000340034EA
:02400E00313F40
:00000001FF
